{
	"Loops.sol": {
		"ForAndWhileLoops": {
			"abi": [
				{
					"inputs": [
						{
							"internalType": "uint256",
							"name": "x",
							"type": "uint256"
						}
					],
					"name": "loops",
					"outputs": [],
					"stateMutability": "pure",
					"type": "function"
				},
				{
					"inputs": [
						{
							"internalType": "uint256",
							"name": "_n",
							"type": "uint256"
						}
					],
					"name": "sumLoop",
					"outputs": [
						{
							"internalType": "uint256",
							"name": "",
							"type": "uint256"
						}
					],
					"stateMutability": "pure",
					"type": "function"
				}
			],
			"devdoc": {
				"kind": "dev",
				"methods": {},
				"version": 1
			},
			"evm": {
				"assembly": "    /* \"Loops.sol\":57:578  contract ForAndWhileLoops {... */\n  mstore(0x40, 0x80)\n  callvalue\n  dup1\n  iszero\n  tag_1\n  jumpi\n  0x00\n  dup1\n  revert\ntag_1:\n  pop\n  dataSize(sub_0)\n  dup1\n  dataOffset(sub_0)\n  0x00\n  codecopy\n  0x00\n  return\nstop\n\nsub_0: assembly {\n        /* \"Loops.sol\":57:578  contract ForAndWhileLoops {... */\n      mstore(0x40, 0x80)\n      callvalue\n      dup1\n      iszero\n      tag_1\n      jumpi\n      0x00\n      dup1\n      revert\n    tag_1:\n      pop\n      jumpi(tag_2, lt(calldatasize, 0x04))\n      shr(0xe0, calldataload(0x00))\n      dup1\n      0x3c26d4dc\n      eq\n      tag_3\n      jumpi\n      dup1\n      0x7f8bdf51\n      eq\n      tag_4\n      jumpi\n    tag_2:\n      0x00\n      dup1\n      revert\n        /* \"Loops.sol\":89:394  function loops(uint256 x) external pure {... */\n    tag_3:\n      tag_5\n      0x04\n      dup1\n      calldatasize\n      sub\n      dup2\n      add\n      swap1\n      tag_6\n      swap2\n      swap1\n      tag_7\n      jump\t// in\n    tag_6:\n      tag_8\n      jump\t// in\n    tag_5:\n      stop\n        /* \"Loops.sol\":400:576  function sumLoop(uint _n) external  pure returns (uint) {... */\n    tag_4:\n      tag_9\n      0x04\n      dup1\n      calldatasize\n      sub\n      dup2\n      add\n      swap1\n      tag_10\n      swap2\n      swap1\n      tag_7\n      jump\t// in\n    tag_10:\n      tag_11\n      jump\t// in\n    tag_9:\n      mload(0x40)\n      tag_12\n      swap2\n      swap1\n      tag_13\n      jump\t// in\n    tag_12:\n      mload(0x40)\n      dup1\n      swap2\n      sub\n      swap1\n      return\n        /* \"Loops.sol\":89:394  function loops(uint256 x) external pure {... */\n    tag_8:\n        /* \"Loops.sol\":144:153  uint256 i */\n      0x00\n        /* \"Loops.sol\":156:157  x */\n      dup2\n        /* \"Loops.sol\":144:157  uint256 i = x */\n      swap1\n      pop\n        /* \"Loops.sol\":139:312  for (uint256 i = x; i < 10; i++) {... */\n    tag_15:\n        /* \"Loops.sol\":163:165  10 */\n      0x0a\n        /* \"Loops.sol\":159:160  i */\n      dup2\n        /* \"Loops.sol\":159:165  i < 10 */\n      lt\n        /* \"Loops.sol\":139:312  for (uint256 i = x; i < 10; i++) {... */\n      iszero\n      tag_16\n      jumpi\n        /* \"Loops.sol\":195:196  3 */\n      0x03\n        /* \"Loops.sol\":190:191  i */\n      dup2\n        /* \"Loops.sol\":190:196  i == 3 */\n      sub\n        /* \"Loops.sol\":186:239  if (i == 3) {... */\n      iszero\n        /* \"Loops.sol\":216:224  continue */\n      tag_17\n        /* \"Loops.sol\":186:239  if (i == 3) {... */\n      jumpi\n        /* \"Loops.sol\":261:262  5 */\n      0x05\n        /* \"Loops.sol\":256:257  i */\n      dup2\n        /* \"Loops.sol\":256:262  i == 5 */\n      sub\n        /* \"Loops.sol\":252:302  if (i == 5) {... */\n      iszero\n        /* \"Loops.sol\":282:287  break */\n      tag_16\n        /* \"Loops.sol\":252:302  if (i == 5) {... */\n      jumpi\n        /* \"Loops.sol\":139:312  for (uint256 i = x; i < 10; i++) {... */\n    tag_17:\n        /* \"Loops.sol\":167:170  i++ */\n      dup1\n      dup1\n      0x01\n      add\n      swap2\n      pop\n      pop\n        /* \"Loops.sol\":139:312  for (uint256 i = x; i < 10; i++) {... */\n      jump(tag_15)\n    tag_16:\n      pop\n        /* \"Loops.sol\":322:331  uint256 j */\n      0x00\n        /* \"Loops.sol\":345:388  while (j < 10) {... */\n    tag_20:\n        /* \"Loops.sol\":356:358  10 */\n      0x0a\n        /* \"Loops.sol\":352:353  j */\n      dup2\n        /* \"Loops.sol\":352:358  j < 10 */\n      lt\n        /* \"Loops.sol\":345:388  while (j < 10) {... */\n      iszero\n      tag_21\n      jumpi\n        /* \"Loops.sol\":374:377  j++ */\n      dup1\n      dup1\n      tag_22\n      swap1\n      tag_23\n      jump\t// in\n    tag_22:\n      swap2\n      pop\n      pop\n        /* \"Loops.sol\":345:388  while (j < 10) {... */\n      jump(tag_20)\n    tag_21:\n        /* \"Loops.sol\":129:394  {... */\n      pop\n        /* \"Loops.sol\":89:394  function loops(uint256 x) external pure {... */\n      pop\n      jump\t// out\n        /* \"Loops.sol\":400:576  function sumLoop(uint _n) external  pure returns (uint) {... */\n    tag_11:\n        /* \"Loops.sol\":450:454  uint */\n      0x00\n        /* \"Loops.sol\":466:474  uint sum */\n      dup1\n        /* \"Loops.sol\":490:496  uint i */\n      0x00\n        /* \"Loops.sol\":499:500  1 */\n      0x01\n        /* \"Loops.sol\":490:500  uint i = 1 */\n      swap1\n      pop\n        /* \"Loops.sol\":485:549  for (uint i = 1; i <= _n; i++) {... */\n    tag_25:\n        /* \"Loops.sol\":507:509  _n */\n      dup4\n        /* \"Loops.sol\":502:503  i */\n      dup2\n        /* \"Loops.sol\":502:509  i <= _n */\n      gt\n        /* \"Loops.sol\":485:549  for (uint i = 1; i <= _n; i++) {... */\n      tag_26\n      jumpi\n        /* \"Loops.sol\":537:538  i */\n      dup1\n        /* \"Loops.sol\":530:538  sum += i */\n      dup3\n      tag_28\n      swap2\n      swap1\n      tag_29\n      jump\t// in\n    tag_28:\n      swap2\n      pop\n        /* \"Loops.sol\":511:514  i++ */\n      dup1\n      dup1\n      tag_30\n      swap1\n      tag_23\n      jump\t// in\n    tag_30:\n      swap2\n      pop\n      pop\n        /* \"Loops.sol\":485:549  for (uint i = 1; i <= _n; i++) {... */\n      jump(tag_25)\n    tag_26:\n      pop\n        /* \"Loops.sol\":566:569  sum */\n      dup1\n        /* \"Loops.sol\":559:569  return sum */\n      swap2\n      pop\n      pop\n        /* \"Loops.sol\":400:576  function sumLoop(uint _n) external  pure returns (uint) {... */\n      swap2\n      swap1\n      pop\n      jump\t// out\n        /* \"#utility.yul\":88:205   */\n    tag_32:\n        /* \"#utility.yul\":197:198   */\n      0x00\n        /* \"#utility.yul\":194:195   */\n      dup1\n        /* \"#utility.yul\":187:199   */\n      revert\n        /* \"#utility.yul\":334:411   */\n    tag_34:\n        /* \"#utility.yul\":371:378   */\n      0x00\n        /* \"#utility.yul\":400:405   */\n      dup2\n        /* \"#utility.yul\":389:405   */\n      swap1\n      pop\n        /* \"#utility.yul\":334:411   */\n      swap2\n      swap1\n      pop\n      jump\t// out\n        /* \"#utility.yul\":417:539   */\n    tag_35:\n        /* \"#utility.yul\":490:514   */\n      tag_45\n        /* \"#utility.yul\":508:513   */\n      dup2\n        /* \"#utility.yul\":490:514   */\n      tag_34\n      jump\t// in\n    tag_45:\n        /* \"#utility.yul\":483:488   */\n      dup2\n        /* \"#utility.yul\":480:515   */\n      eq\n        /* \"#utility.yul\":470:533   */\n      tag_46\n      jumpi\n        /* \"#utility.yul\":529:530   */\n      0x00\n        /* \"#utility.yul\":526:527   */\n      dup1\n        /* \"#utility.yul\":519:531   */\n      revert\n        /* \"#utility.yul\":470:533   */\n    tag_46:\n        /* \"#utility.yul\":417:539   */\n      pop\n      jump\t// out\n        /* \"#utility.yul\":545:684   */\n    tag_36:\n        /* \"#utility.yul\":591:596   */\n      0x00\n        /* \"#utility.yul\":629:635   */\n      dup2\n        /* \"#utility.yul\":616:636   */\n      calldataload\n        /* \"#utility.yul\":607:636   */\n      swap1\n      pop\n        /* \"#utility.yul\":645:678   */\n      tag_48\n        /* \"#utility.yul\":672:677   */\n      dup2\n        /* \"#utility.yul\":645:678   */\n      tag_35\n      jump\t// in\n    tag_48:\n        /* \"#utility.yul\":545:684   */\n      swap3\n      swap2\n      pop\n      pop\n      jump\t// out\n        /* \"#utility.yul\":690:1019   */\n    tag_7:\n        /* \"#utility.yul\":749:755   */\n      0x00\n        /* \"#utility.yul\":798:800   */\n      0x20\n        /* \"#utility.yul\":786:795   */\n      dup3\n        /* \"#utility.yul\":777:784   */\n      dup5\n        /* \"#utility.yul\":773:796   */\n      sub\n        /* \"#utility.yul\":769:801   */\n      slt\n        /* \"#utility.yul\":766:885   */\n      iszero\n      tag_50\n      jumpi\n        /* \"#utility.yul\":804:883   */\n      tag_51\n      tag_32\n      jump\t// in\n    tag_51:\n        /* \"#utility.yul\":766:885   */\n    tag_50:\n        /* \"#utility.yul\":924:925   */\n      0x00\n        /* \"#utility.yul\":949:1002   */\n      tag_52\n        /* \"#utility.yul\":994:1001   */\n      dup5\n        /* \"#utility.yul\":985:991   */\n      dup3\n        /* \"#utility.yul\":974:983   */\n      dup6\n        /* \"#utility.yul\":970:992   */\n      add\n        /* \"#utility.yul\":949:1002   */\n      tag_36\n      jump\t// in\n    tag_52:\n        /* \"#utility.yul\":939:1002   */\n      swap2\n      pop\n        /* \"#utility.yul\":895:1012   */\n      pop\n        /* \"#utility.yul\":690:1019   */\n      swap3\n      swap2\n      pop\n      pop\n      jump\t// out\n        /* \"#utility.yul\":1025:1143   */\n    tag_37:\n        /* \"#utility.yul\":1112:1136   */\n      tag_54\n        /* \"#utility.yul\":1130:1135   */\n      dup2\n        /* \"#utility.yul\":1112:1136   */\n      tag_34\n      jump\t// in\n    tag_54:\n        /* \"#utility.yul\":1107:1110   */\n      dup3\n        /* \"#utility.yul\":1100:1137   */\n      mstore\n        /* \"#utility.yul\":1025:1143   */\n      pop\n      pop\n      jump\t// out\n        /* \"#utility.yul\":1149:1371   */\n    tag_13:\n        /* \"#utility.yul\":1242:1246   */\n      0x00\n        /* \"#utility.yul\":1280:1282   */\n      0x20\n        /* \"#utility.yul\":1269:1278   */\n      dup3\n        /* \"#utility.yul\":1265:1283   */\n      add\n        /* \"#utility.yul\":1257:1283   */\n      swap1\n      pop\n        /* \"#utility.yul\":1293:1364   */\n      tag_56\n        /* \"#utility.yul\":1361:1362   */\n      0x00\n        /* \"#utility.yul\":1350:1359   */\n      dup4\n        /* \"#utility.yul\":1346:1363   */\n      add\n        /* \"#utility.yul\":1337:1343   */\n      dup5\n        /* \"#utility.yul\":1293:1364   */\n      tag_37\n      jump\t// in\n    tag_56:\n        /* \"#utility.yul\":1149:1371   */\n      swap3\n      swap2\n      pop\n      pop\n      jump\t// out\n        /* \"#utility.yul\":1377:1557   */\n    tag_38:\n        /* \"#utility.yul\":1425:1502   */\n      0x4e487b7100000000000000000000000000000000000000000000000000000000\n        /* \"#utility.yul\":1422:1423   */\n      0x00\n        /* \"#utility.yul\":1415:1503   */\n      mstore\n        /* \"#utility.yul\":1522:1526   */\n      0x11\n        /* \"#utility.yul\":1519:1520   */\n      0x04\n        /* \"#utility.yul\":1512:1527   */\n      mstore\n        /* \"#utility.yul\":1546:1550   */\n      0x24\n        /* \"#utility.yul\":1543:1544   */\n      0x00\n        /* \"#utility.yul\":1536:1551   */\n      revert\n        /* \"#utility.yul\":1563:1796   */\n    tag_23:\n        /* \"#utility.yul\":1602:1605   */\n      0x00\n        /* \"#utility.yul\":1625:1649   */\n      tag_59\n        /* \"#utility.yul\":1643:1648   */\n      dup3\n        /* \"#utility.yul\":1625:1649   */\n      tag_34\n      jump\t// in\n    tag_59:\n        /* \"#utility.yul\":1616:1649   */\n      swap2\n      pop\n        /* \"#utility.yul\":1671:1737   */\n      0xffffffffffffffffffffffffffffffffffffffffffffffffffffffffffffffff\n        /* \"#utility.yul\":1664:1669   */\n      dup3\n        /* \"#utility.yul\":1661:1738   */\n      sub\n        /* \"#utility.yul\":1658:1761   */\n      tag_60\n      jumpi\n        /* \"#utility.yul\":1741:1759   */\n      tag_61\n      tag_38\n      jump\t// in\n    tag_61:\n        /* \"#utility.yul\":1658:1761   */\n    tag_60:\n        /* \"#utility.yul\":1788:1789   */\n      0x01\n        /* \"#utility.yul\":1781:1786   */\n      dup3\n        /* \"#utility.yul\":1777:1790   */\n      add\n        /* \"#utility.yul\":1770:1790   */\n      swap1\n      pop\n        /* \"#utility.yul\":1563:1796   */\n      swap2\n      swap1\n      pop\n      jump\t// out\n        /* \"#utility.yul\":1802:1993   */\n    tag_29:\n        /* \"#utility.yul\":1842:1845   */\n      0x00\n        /* \"#utility.yul\":1861:1881   */\n      tag_63\n        /* \"#utility.yul\":1879:1880   */\n      dup3\n        /* \"#utility.yul\":1861:1881   */\n      tag_34\n      jump\t// in\n    tag_63:\n        /* \"#utility.yul\":1856:1881   */\n      swap2\n      pop\n        /* \"#utility.yul\":1895:1915   */\n      tag_64\n        /* \"#utility.yul\":1913:1914   */\n      dup4\n        /* \"#utility.yul\":1895:1915   */\n      tag_34\n      jump\t// in\n    tag_64:\n        /* \"#utility.yul\":1890:1915   */\n      swap3\n      pop\n        /* \"#utility.yul\":1938:1939   */\n      dup3\n        /* \"#utility.yul\":1935:1936   */\n      dup3\n        /* \"#utility.yul\":1931:1940   */\n      add\n        /* \"#utility.yul\":1924:1940   */\n      swap1\n      pop\n        /* \"#utility.yul\":1959:1962   */\n      dup1\n        /* \"#utility.yul\":1956:1957   */\n      dup3\n        /* \"#utility.yul\":1953:1963   */\n      gt\n        /* \"#utility.yul\":1950:1986   */\n      iszero\n      tag_65\n      jumpi\n        /* \"#utility.yul\":1966:1984   */\n      tag_66\n      tag_38\n      jump\t// in\n    tag_66:\n        /* \"#utility.yul\":1950:1986   */\n    tag_65:\n        /* \"#utility.yul\":1802:1993   */\n      swap3\n      swap2\n      pop\n      pop\n      jump\t// out\n\n    auxdata: 0xa2646970667358221220fdabcd168980594a52c785aa33c5dbe473d46e5b19fc49b7feda31e6ae6c61b464736f6c634300081a0033\n}\n",
				"bytecode": {
					"linkReferences": {},
					"object": "6080604052348015600e575f80fd5b506102768061001c5f395ff3fe608060405234801561000f575f80fd5b5060043610610034575f3560e01c80633c26d4dc146100385780637f8bdf5114610054575b5f80fd5b610052600480360381019061004d9190610146565b610084565b005b61006e60048036038101906100699190610146565b6100d5565b60405161007b9190610180565b60405180910390f35b5f8190505b600a8110156100b25760038103156100a55760058103156100b2575b8080600101915050610089565b505f5b600a8110156100d15780806100c9906101c6565b9150506100b5565b5050565b5f805f600190505b8381116101055780826100f0919061020d565b915080806100fd906101c6565b9150506100dd565b5080915050919050565b5f80fd5b5f819050919050565b61012581610113565b811461012f575f80fd5b50565b5f813590506101408161011c565b92915050565b5f6020828403121561015b5761015a61010f565b5b5f61016884828501610132565b91505092915050565b61017a81610113565b82525050565b5f6020820190506101935f830184610171565b92915050565b7f4e487b71000000000000000000000000000000000000000000000000000000005f52601160045260245ffd5b5f6101d082610113565b91507fffffffffffffffffffffffffffffffffffffffffffffffffffffffffffffffff820361020257610201610199565b5b600182019050919050565b5f61021782610113565b915061022283610113565b925082820190508082111561023a57610239610199565b5b9291505056fea2646970667358221220fdabcd168980594a52c785aa33c5dbe473d46e5b19fc49b7feda31e6ae6c61b464736f6c634300081a0033",
					"opcodes": "PUSH1 0x80 PUSH1 0x40 MSTORE CALLVALUE DUP1 ISZERO PUSH1 0xE JUMPI PUSH0 DUP1 REVERT JUMPDEST POP PUSH2 0x276 DUP1 PUSH2 0x1C PUSH0 CODECOPY PUSH0 RETURN INVALID PUSH1 0x80 PUSH1 0x40 MSTORE CALLVALUE DUP1 ISZERO PUSH2 0xF JUMPI PUSH0 DUP1 REVERT JUMPDEST POP PUSH1 0x4 CALLDATASIZE LT PUSH2 0x34 JUMPI PUSH0 CALLDATALOAD PUSH1 0xE0 SHR DUP1 PUSH4 0x3C26D4DC EQ PUSH2 0x38 JUMPI DUP1 PUSH4 0x7F8BDF51 EQ PUSH2 0x54 JUMPI JUMPDEST PUSH0 DUP1 REVERT JUMPDEST PUSH2 0x52 PUSH1 0x4 DUP1 CALLDATASIZE SUB DUP2 ADD SWAP1 PUSH2 0x4D SWAP2 SWAP1 PUSH2 0x146 JUMP JUMPDEST PUSH2 0x84 JUMP JUMPDEST STOP JUMPDEST PUSH2 0x6E PUSH1 0x4 DUP1 CALLDATASIZE SUB DUP2 ADD SWAP1 PUSH2 0x69 SWAP2 SWAP1 PUSH2 0x146 JUMP JUMPDEST PUSH2 0xD5 JUMP JUMPDEST PUSH1 0x40 MLOAD PUSH2 0x7B SWAP2 SWAP1 PUSH2 0x180 JUMP JUMPDEST PUSH1 0x40 MLOAD DUP1 SWAP2 SUB SWAP1 RETURN JUMPDEST PUSH0 DUP2 SWAP1 POP JUMPDEST PUSH1 0xA DUP2 LT ISZERO PUSH2 0xB2 JUMPI PUSH1 0x3 DUP2 SUB ISZERO PUSH2 0xA5 JUMPI PUSH1 0x5 DUP2 SUB ISZERO PUSH2 0xB2 JUMPI JUMPDEST DUP1 DUP1 PUSH1 0x1 ADD SWAP2 POP POP PUSH2 0x89 JUMP JUMPDEST POP PUSH0 JUMPDEST PUSH1 0xA DUP2 LT ISZERO PUSH2 0xD1 JUMPI DUP1 DUP1 PUSH2 0xC9 SWAP1 PUSH2 0x1C6 JUMP JUMPDEST SWAP2 POP POP PUSH2 0xB5 JUMP JUMPDEST POP POP JUMP JUMPDEST PUSH0 DUP1 PUSH0 PUSH1 0x1 SWAP1 POP JUMPDEST DUP4 DUP2 GT PUSH2 0x105 JUMPI DUP1 DUP3 PUSH2 0xF0 SWAP2 SWAP1 PUSH2 0x20D JUMP JUMPDEST SWAP2 POP DUP1 DUP1 PUSH2 0xFD SWAP1 PUSH2 0x1C6 JUMP JUMPDEST SWAP2 POP POP PUSH2 0xDD JUMP JUMPDEST POP DUP1 SWAP2 POP POP SWAP2 SWAP1 POP JUMP JUMPDEST PUSH0 DUP1 REVERT JUMPDEST PUSH0 DUP2 SWAP1 POP SWAP2 SWAP1 POP JUMP JUMPDEST PUSH2 0x125 DUP2 PUSH2 0x113 JUMP JUMPDEST DUP2 EQ PUSH2 0x12F JUMPI PUSH0 DUP1 REVERT JUMPDEST POP JUMP JUMPDEST PUSH0 DUP2 CALLDATALOAD SWAP1 POP PUSH2 0x140 DUP2 PUSH2 0x11C JUMP JUMPDEST SWAP3 SWAP2 POP POP JUMP JUMPDEST PUSH0 PUSH1 0x20 DUP3 DUP5 SUB SLT ISZERO PUSH2 0x15B JUMPI PUSH2 0x15A PUSH2 0x10F JUMP JUMPDEST JUMPDEST PUSH0 PUSH2 0x168 DUP5 DUP3 DUP6 ADD PUSH2 0x132 JUMP JUMPDEST SWAP2 POP POP SWAP3 SWAP2 POP POP JUMP JUMPDEST PUSH2 0x17A DUP2 PUSH2 0x113 JUMP JUMPDEST DUP3 MSTORE POP POP JUMP JUMPDEST PUSH0 PUSH1 0x20 DUP3 ADD SWAP1 POP PUSH2 0x193 PUSH0 DUP4 ADD DUP5 PUSH2 0x171 JUMP JUMPDEST SWAP3 SWAP2 POP POP JUMP JUMPDEST PUSH32 0x4E487B7100000000000000000000000000000000000000000000000000000000 PUSH0 MSTORE PUSH1 0x11 PUSH1 0x4 MSTORE PUSH1 0x24 PUSH0 REVERT JUMPDEST PUSH0 PUSH2 0x1D0 DUP3 PUSH2 0x113 JUMP JUMPDEST SWAP2 POP PUSH32 0xFFFFFFFFFFFFFFFFFFFFFFFFFFFFFFFFFFFFFFFFFFFFFFFFFFFFFFFFFFFFFFFF DUP3 SUB PUSH2 0x202 JUMPI PUSH2 0x201 PUSH2 0x199 JUMP JUMPDEST JUMPDEST PUSH1 0x1 DUP3 ADD SWAP1 POP SWAP2 SWAP1 POP JUMP JUMPDEST PUSH0 PUSH2 0x217 DUP3 PUSH2 0x113 JUMP JUMPDEST SWAP2 POP PUSH2 0x222 DUP4 PUSH2 0x113 JUMP JUMPDEST SWAP3 POP DUP3 DUP3 ADD SWAP1 POP DUP1 DUP3 GT ISZERO PUSH2 0x23A JUMPI PUSH2 0x239 PUSH2 0x199 JUMP JUMPDEST JUMPDEST SWAP3 SWAP2 POP POP JUMP INVALID LOG2 PUSH5 0x6970667358 0x22 SLT KECCAK256 REVERT 0xAB 0xCD AND DUP10 DUP1 MSIZE BLOBBASEFEE MSTORE 0xC7 DUP6 0xAA CALLER 0xC5 0xDB 0xE4 PUSH20 0xD46E5B19FC49B7FEDA31E6AE6C61B464736F6C63 NUMBER STOP ADDMOD BYTE STOP CALLER "
				},
				"gasEstimates": {
					"creation": {
						"codeDepositCost": "126000",
						"executionCost": "169",
						"totalCost": "126169"
					},
					"external": {
						"loops(uint256)": "infinite",
						"sumLoop(uint256)": "infinite"
					}
				},
				"methodIdentifiers": {
					"loops(uint256)": "3c26d4dc",
					"sumLoop(uint256)": "7f8bdf51"
				}
			},
			"storageLayout": {
				"storage": [],
				"types": null
			},
			"userdoc": {
				"kind": "user",
				"methods": {},
				"version": 1
			}
		}
	}
}